:100000000C94D5000C94F2000C94F2000C94F200C5
:100010000C94F2000C94F2000C94F2000C94F20098
:100020000C94F2000C94F2000C94F2000C94F20088
:100030000C94F2000C94F2000C94F2000C94F20078
:100040000C94F2000C94F2000C94F2000C94F20068
:100050000C94F2000C94F2000C94F2000C94F20058
:100060000C94F2000C94F2004E414E494E49545902
:10007000494E46CDCCCC3D0AD7233C17B7D1387773
:10008000CC2B329595E6241FB14F0A000020410089
:1000900000C84200401C4620BCBE4CCA1B0E5AAED3
:1000A000C59D746364696E6F70737578585B0000EA
:1000B000407A10F35A00A0724E18090010A5D4E837
:1000C0000000E87648170000E40B54020000CA9ACA
:1000D0003B000000E1F5050000809698000000401C
:1000E000420F000000A08601000000102700000061
:1000F00000E803000000006400000000000A0000A7
:100100000000000100000000002C76D888DC674F5A
:100110000823DFC1DFAE59E1B1B796E5E3E453C68A
:100120003AE651997696E8E6C28426EB898C9B6282
:10013000ED407C6FFCEFBC9C9F40F2BAA56FA5F42C
:1001400090055A2AF75C936B6CF9676DC11BFCE054
:10015000E40D47FEF520E6B500D0ED902E030094A7
:100160003577050080841E080000204E0A0000003C
:10017000C80C333333330F986E12831141EF8D2146
:1001800014893BE65516CFFEE6DB18D1844B381BAD
:10019000F77C1D901DA4BBE424203284725E228172
:1001A00000C9F124ECA1E53D270011241FBECFEFCB
:1001B000D8E0DEBFCDBF12E0A0E0B1E0EEE5F0E2B6
:1001C00002C005900D92A439B107D9F722E0A4E945
:1001D000B2E001C01D92A639B207E1F70E94DC012E
:1001E0000C942D100C9400001092B9008CE08093B8
:1001F000B800089594EA9093BC009091BC009923B4
:10020000E4F79091B900987F983011F0903191F413
:100210008093BB0084E88093BC008091BC0088235D
:10022000E4F78091B900887F883131F0803431F46F
:1002300080E0089581E0089580E0089581E00895C8
:1002400084E98093BC008091BC0084FDFCCF0895BC
:100250008093BB0084E88093BC008091BC0088231D
:10026000E4F78091B900887F883211F081E0089529
:1002700080E008959093C5008093C40088E1809346
:10028000C10086E08093C20008959091C00095FF60
:10029000FCCF8093C6000895CF93DF93EC0103C099
:1002A00021960E94450188818111FACFDF91CF917B
:1002B00008958091C0008823E4F78091C6000895D6
:1002C00080E480937C0087E880937A000895ECE7CF
:1002D000F0E08081807F8083EAE7F0E080818064C5
:1002E000808380917A0086FDFCCF80917800909188
:1002F000790008950F931F938B01BC0180E090E07B
:100300000E94E90420E030E040EA50E40E94A005A9
:1003100020E030EC4FE754E40E94480422E044E03F
:100320000E940D061F910F910895CF92DF92EF92D8
:10033000FF92CF938230D0F56A017B01C82F20E075
:1003400030E0A901C701B6010E944304882374F17B
:1003500020E030E040EA50E4C701B6010E949B056E
:10036000181624F120E030E040EA50E4C701B6015D
:100370000E94480420E030E04FE753E40E94A005CB
:1003800020E030E040E05FE30E94D7030E94BA041F
:10039000F62EC295C07F80E50E94FA008C2F0E9445
:1003A00028018F2D0E9428010E942001CF91FF90EB
:1003B000EF90DF90CF900895CF93DF93CDB7DEB766
:1003C000C455D1090FB6F894DEBF0FBECDBF87E686
:1003D00090E00E943A010E9460010E94F40080E0D7
:1003E00091E00E944C0110E00E9459018A30B1F066
:1003F0008D30A1F0133190F491E0910FE1E0F0E045
:10040000EC0FFD1FE10FF11D8083E1E0F0E0EC0F48
:10041000FD1FE90FF11D1082192FE6CF112321F3E3
:100420009E012F5F3F4F79013F932F9381E291E02F
:100430009F938F931F9288E28F936E013FE1C30ECB
:10044000D11CDF92CF920E94BE07C6010E944C01D0
:10045000F701E10FF11D108260E371E0C7010E9416
:10046000A7070FB6F894DEBF0FBECDBF892B09F5E5
:100470000E9467017E01F5E1EF0EF11CB7010E94B9
:100480007A01FF92EF9282E391E09F938F931F9204
:1004900088E28F937601FF92CF920E94BE07C60139
:1004A0000E944C010FB6F894DEBF0FBECDBF10E026
:1004B0009BCF89818D3409F0B2C0FE01EF5AFF4F06
:1004C00011821082DE01A95BBF4F11961C921E9211
:1004D000BF93AF93FF93EF9382E491E09F938F9349
:1004E000CE0101969F938F930E94EE070FB6F8946A
:1004F000DEBF0FBECDBF029709F08BC063968EADF5
:100500009FAD6397823091050CF483C085319105CE
:100510000CF07FC029962EAD3FAD29971216130619
:100520000CF077C02B3031050CF073C03F932F9344
:100530009F938F938AE491E09F938F931F9288E219
:100540008F937E01FFE1EF0EF11CFF92EF920E946C
:10055000BE07C7010E944C010FB6F894DEBF0FBE64
:10056000CDBFE12CF12C4CC00E9467016E0135E13A
:10057000C30ED11CB6010E947A01DF92CF92299658
:100580002EAD3FAD2997E29EC001E39E900DF29EF5
:10059000900D11249F938F938DE691E09F938F93FD
:1005A0001F9288E28F936E018FE1C80ED11CDF92FB
:1005B000CF920E94BE07C6010E944C010FB6F8946C
:1005C000DEBF0FBECDBF80E090E007C0EFE9FFE0E7
:1005D0003197F1F700C00000019629966EAD7FAD0E
:1005E000299748EE53E0649F9001659F300D749FFA
:1005F000300D1124821793074CF3FFEFEF1AFF0A17
:1006000063968EAD9FAD6397E816F9060CF4ACCFF8
:1006100004C08EE791E00E944C0110E0E5CE42E07C
:1006200050E066EB71E0CE0101960E94B007892B85
:1006300009F0B6C0FE01ED5AFF4F11821082FF9300
:10064000EF9389EB91E09F938F93CE0103969F9355
:100650008F930E94EE070F900F900F900F900F90C6
:100660000F90019709F096C06CE270E0CE010396FE
:100670000E949C07009709F488C0BE016F5A7F4F03
:1006800001960E942D066B017C0105C03196639690
:10069000FFAFEEAF63976396EEADFFAD63978081DA
:1006A0008D30A1F38A3091F381116AC064961FAD39
:1006B0006497812F65969FAD6597029708F060C09B
:1006C00020E030E0A901C701B6010E949B05882304
:1006D0000CF456C020E030E040EA50E4C701B60117
:1006E0000E94430418160CF44BC0B701A601812FD9
:1006F0000E94950120E030E040EA50E4C701B601D5
:100700000E94480420E030E04FE753E40E94A00537
:1007100020E030E040E05FE30E94D7030E94BA048B
:10072000962E5E0127E4A20EB11C850122E044E072
:10073000C701B6010E940D061F929F92BF92AF9211
:1007400065968FAD65978F9364968FAD64978F9301
:100750008DEB91E09F938F931F9288E28F937E01A0
:100760003FE1E30EF11CFF92EF920E94BE07C7012A
:100770000E944C010FB6F894DEBF0FBECDBF0EC075
:1007800080EE91E00E944C0109C08AE192E00E9453
:100790004C0104C081E492E00E944C0110E024CEA0
:1007A00082E692E00E944C0110E01ECE5058BB271A
:1007B000AA270E94EE030C9461050E94530538F0AD
:1007C0000E945A0520F039F49F3F19F426F40C9446
:1007D00050050EF4E095E7FB0C944A05E92F0E94C2
:1007E000720558F3BA17620773078407950720F05C
:1007F00079F4A6F50C9494050EF4E0950B2EBA2F1F
:10080000A02D0B01B90190010C01CA01A001112416
:10081000FF27591B99F0593F50F4503E68F11A16C2
:10082000F040A22F232F342F4427585FF3CF469553
:1008300037952795A795F0405395C9F77EF41F1675
:10084000BA0B620B730B840BBAF09150A1F0FF0F3F
:10085000BB1F661F771F881FC2F70EC0BA0F621F2B
:10086000731F841F48F4879577956795B795F7951B
:100870009E3F08F0B0CF9395880F08F09927EE0FB0
:100880009795879508950E94260508F481E00895BC
:100890000E945C040C9461050E945A0558F00E9465
:1008A000530540F029F45F3F29F00C944A0551119B
:1008B0000C9495050C9450050E94720568F39923D9
:1008C000B1F3552391F3951B550BBB27AA2762174C
:1008D0007307840738F09F5F5F4F220F331F441F59
:1008E000AA1FA9F335D00E2E3AF0E0E832D091508D
:1008F0005040E695001CCAF72BD0FE2F29D0660F7A
:10090000771F881FBB1F261737074807AB07B0E8BC
:1009100009F0BB0B802DBF01FF2793585F4F3AF0C2
:100920009E3F510578F00C944A050C9495055F3F65
:10093000E4F3983ED4F3869577956795B795F79548
:100940009F5FC9F7880F911D9695879597F9089530
:10095000E1E0660F771F881FBB1F621773078407CC
:10096000BA0720F0621B730B840BBA0BEE1F88F7DB
:10097000E09508950E947A0588F09F5798F0B92F66
:100980009927B751B0F0E1F0660F771F881F991FC4
:100990001AF0BA95C9F714C0B13091F00E949405CD
:1009A000B1E008950C949405672F782F8827B85FDD
:1009B00039F0B93FCCF3869577956795B395D9F71C
:1009C0003EF490958095709561957F4F8F4F9F4F26
:1009D0000895E89409C097FB3EF490958095709532
:1009E00061957F4F8F4F9F4F9923A9F0F92F96E97B
:1009F000BB279395F695879577956795B795F111F0
:100A0000F8CFFAF4BB0F11F460FF1BC06F5F7F4F8C
:100A10008F4F9F4F16C0882311F096E911C077239E
:100A200021F09EE8872F762F05C0662371F096E8A7
:100A3000862F70E060E02AF09A95660F771F881F76
:100A4000DAF7880F9695879597F90895990F00081A
:100A5000550FAA0BE0E8FEEF16161706E807F90790
:100A6000C0F012161306E407F50798F0621B730B2B
:100A7000840B950B39F40A2661F0232B242B252BAC
:100A800021F408950A2609F4A140A6958FEF811D4F
:100A9000811D089597F99F6780E870E060E00895F0
:100AA0009FEF80EC089500240A9416161706180686
:100AB0000906089500240A94121613061406050662
:100AC0000895092E0394000C11F4882352F0BB0FF3
:100AD00040F4BF2B11F460FF04C06F5F7F4F8F4F56
:100AE0009F4F089557FD9058440F551F59F05F3F91
:100AF00071F04795880F97FB991F61F09F3F79F040
:100B000087950895121613061406551FF2CF4695C1
:100B1000F1DF08C0161617061806991FF1CF869543
:100B20007105610508940895E894BB276627772727
:100B3000CB0197F908950E94260508F48FEF0895D8
:100B40000E94B3050C9461050E94530538F00E9481
:100B50005A0520F0952311F00C944A050C94500589
:100B600011240C9495050E94720570F3959FC1F3B2
:100B7000950F50E0551F629FF001729FBB27F00D4B
:100B8000B11D639FAA27F00DB11DAA1F649F6627A0
:100B9000B00DA11D661F829F2227B00DA11D621FEF
:100BA000739FB00DA11D621F839FA00D611D221FA9
:100BB000749F3327A00D611D231F849F600D211D8D
:100BC000822F762F6A2F11249F5750409AF0F1F010
:100BD00088234AF0EE0FFF1FBB1F661F771F881F79
:100BE00091505040A9F79E3F510580F00C944A0562
:100BF0000C9495055F3FE4F3983ED4F38695779582
:100C00006795B795F795E7959F5FC1F7FE2B880F1E
:100C1000911D9695879597F90895EF920F931F93DD
:100C2000CF93DF93E80147FD02C034E001C034E117
:100C3000042E000C550B57FF03C0519541955109E7
:100C4000E32E022F242FAE010E94950CCE01DF91DE
:100C5000CF911F910F91EF900895A0E0B0E0E3E3F2
:100C6000F6E00C94ED0FEC016B016115710519F0C4
:100C7000FB01918380837E01FFEFEF1AFF0A088159
:100C8000802F90E00E947B07892B11F0E701F3CFC2
:100C90000D3239F47E0182E0E80EF11C098111E089
:100CA00008C00B3229F47E0192E0E90EF11C0981A3
:100CB00010E0E701219743E050E060E770E0CE01EB
:100CC0000E948407892BC1F4239645E050E06BE62F
:100CD00070E0CE010E948407892B09F42596C11487
:100CE000D10419F0F601D183C0831111F6C060E080
:100CF00070E080E89FE7FAC043E050E068E670E00B
:100D0000CE010E948407892B59F4C114D10409F43F
:100D1000E9C0F2E0EF0EF11CF601F182E082E2C0E0
:100D200020E030E0A901C0E0D0E0F70180EDA82E7E
:100D3000A00E89E08A1530F1912F9260B92E812F93
:100D4000887012FF04C0811124C0219622C0811135
:100D50002197A5E0B0E00E94DC0FDC01CB01880FF9
:100D6000991FAA1FBB1F9C01AD012A0D311D411DFA
:100D7000511D283989E93807480789E1580748F0A3
:100D8000166006C09EEFA9120AC013FD40C018608D
:100D9000B12E8FEFE81AF80A00811B2DC6CF802FE5
:100DA0008F7D8534A1F580818D3211F4106106C0EC
:100DB0008B3221F0319661E070E004C0818132967F
:100DC00062E070E080538A3018F0E61BF70B1FC01A
:100DD00060E070E060389CE079075CF4DB01AA0F0A
:100DE000BB1FAA0FBB1F6A0F7B1F660F771F680F01
:100DF000711D3196DF0111978C9180538A3050F329
:100E000014FF03C0719561957109C60FD71F11FFBB
:100E100008C0C114D10429F0CF010197F6019183D4
:100E20008083CA01B9010E94E904212F2370233075
:100E300019F04B015C0106C04B015C01B7FAB0949C
:100E4000B7F8B09420E030E0A901C501B4010E94D8
:100E50004304882309F43EC0D7FF06C0D195C1954D
:100E6000D10907E810E002C00FE910E06801F8E1DD
:100E7000CF1AD10890E2E92EF12CCE15DF0574F0DF
:100E8000F8012591359145915491C501B4010E9415
:100E9000A0054B015C01CE19DF09EFCF0450110909
:100EA000F594E7940C151D0541F78A2D880F8B2DBD
:100EB000881F8F3F49F020E030E0A901C501B4014F
:100EC0000E944304811106C082E290E09093950253
:100ED00080939402C501B40109C060E070E080E82D
:100EE0009FEF04C060E070E080EC9FE7CDB7DEB715
:100EF000ECE00C94091091110C94C70E803219F09B
:100F000089508550C8F70895FB01DC0141505040DD
:100F100088F08D9181341CF08B350CF4805E6591E6
:100F200061341CF06B350CF4605E861B611171F34B
:100F3000990B0895881BFCCFFC018191861721F045
:100F40008823D9F7992708953197CF010895FB0198
:100F5000DC018D91019080190110D9F3990B08954E
:100F6000FB01DC014150504030F08D91019080191F
:100F700019F40020B9F7881B990B0895AEE0B0E092
:100F8000E4ECF7E00C94F50F0D891E898F89988D9C
:100F900026E02C831A83098397FF02C080E090E843
:100FA00001979E838D83AE01455E5F4F698D7A8D7B
:100FB000CE0101960E9407084D815E8157FD0AC04F
:100FC0002F813885421753070CF49A01F801E20F7C
:100FD000F31F10822E96E4E00C941110AEE0B0E006
:100FE000E4EFF7E00C94F70F85E08C838B899C8904
:100FF0009A838983AE01495E5F4F6D897E89CE01F8
:1010000001960E94840B2E96E2E00C941310ABE044
:10101000B0E0EDE0F8E00C94E70F6C017B018A0191
:10102000FC0117821682838181FFCCC1CE0101961B
:101030003C01F6019381F70193FD859193FF819126
:101040007F01882309F4BAC1853239F493FD859173
:1010500093FF81917F01853229F4B60190E00E94CF
:10106000290FE7CF912C212C312CFFE1F315D8F07B
:101070008B3279F038F4803279F08332A1F4232D69
:1010800020611DC08D3261F0803369F4232D216011
:1010900016C0832D8260382EE32DE4603E2E2AC0D8
:1010A000F32DF8601DC037FC2DC020ED280F2A302D
:1010B00040F08E32B9F436FC81C1232D2064322EEB
:1010C00019C036FE06C08AE0989E200D1124922E8B
:1010D00011C0EAE02E9E200D1124222EF32DF06285
:1010E0003F2E08C08C3621F4832D8068382E02C034
:1010F000883641F4F70193FD859193FF81917F013B
:101100008111B3CF982F9F7D9554933028F40C5FB5
:101110001F4F9FE399830DC0833631F0833771F001
:10112000833509F059C021C0F801808189830E5FA1
:101130001F4F88248394912C530113C02801F2E09F
:101140004F0E511CF801A080B18036FE03C0692DFE
:1011500070E002C06FEF7FEFC5010E94E00E4C010E
:101160008201F32DFF773F2E16C0280122E0420EA8
:10117000511CF801A080B18036FE03C0692D70E0DB
:1011800002C06FEF7FEFC5010E94D50E4C01F32D19
:10119000F0683F2E820133FC1BC0822D90E0881640
:1011A0009906B0F4B60180E290E00E94290F2A94DB
:1011B000F4CFF50137FC859137FE81915F01B601CF
:1011C00090E00E94290F21102A9421E0821A9108B0
:1011D0008114910471F7E8C0843611F0893641F525
:1011E000F80137FE07C060817181828193810C5FB5
:1011F0001F4F08C060817181072E000C880B990B6E
:101200000E5F1F4FF32DFF763F2E97FF09C090957D
:101210008095709561957F4F8F4F9F4FF0683F2E5F
:101220002AE030E0A3010E947E0F882E861845C078
:10123000853731F4232D2F7EB22E2AE030E025C0F1
:10124000932D997FB92E8F36C1F018F4883579F037
:10125000B5C0803719F0883721F0B0C0E92FE061C0
:10126000BE2EB4FE0DC0FB2DF460BF2E09C034FEAF
:101270000AC0292F2660B22E06C028E030E005C043
:1012800020E130E002C020E132E0F801B7FE07C003
:1012900060817181828193810C5F1F4F06C06081E4
:1012A000718180E090E00E5F1F4FA3010E947E0FCE
:1012B000882E8618FB2DFF773F2E36FE0DC0232D7E
:1012C0002E7FA22E891458F434FE0BC032FC09C0C4
:1012D000832D8E7EA82E05C0B82CA32C03C0B82C5D
:1012E00001C0B92CA4FE0FC0FE01E80DF11D8081E4
:1012F000803321F49A2D997EA92E09C0A2FE06C042
:10130000B394B39404C08A2D867809F0B394A3FCF7
:1013100011C0A0FE06C0B21488F4280C922C9B18B1
:101320000EC0B21460F4B60180E290E00E94290F72
:10133000B394F7CFB21418F42B1802C0982C212CB8
:10134000A4FE10C0B60180E390E00E94290FA2FE27
:1013500017C0A1FC03C088E790E002C088E590E0D8
:10136000B6010CC08A2D867859F0A1FE02C08BE22E
:1013700001C080E2A7FC8DE2B60190E00E94290F37
:10138000891438F4B60180E390E00E94290F9A9402
:10139000F7CF8A94F301E80DF11D8081B60190E04A
:1013A0000E94290F8110F5CF222009F442CEB60108
:1013B00080E290E00E94290F2A94F6CFF601868100
:1013C000978102C08FEF9FEF2B96E2E10C94031000
:1013D00020FD09C0FC0123FD05C022FF02C073836C
:1013E000628351834083089544FD17C046FD17C0B2
:1013F000AB01BC01DA01FB01AA0FBB1FEE1FFF1FEF
:101400001094D1F74A0F5B1F6E1F7F1FCB01BA01EB
:10141000660F771F881F991F09C033E001C034E0B1
:10142000660F771F881F991F3150D1F7620F711D0A
:10143000811D911D08950F931F93CF93DF938C010E
:10144000C8010E94EB0EEC0197FD08C00E947B07CB
:10145000892BB1F7B801CE010E94650FCE01DF9153
:10146000CF911F910F9108958F929F92AF92BF924B
:10147000EF92FF920F931F93CF93DF938C01D62FA0
:101480007A01B22E0E94EB0E9C0133272B323105DC
:1014900031F02D32310561F48B2D8068B82ED1509A
:1014A00011F480E068C0C8010E94EB0E97FDF9CFEF
:1014B000CB2DCD7F2B2D207309F58033F9F4AA2491
:1014C000AA94AD0E09F443C0C8010E94EB0E97FD2B
:1014D0003EC09C012F7D33272835310549F4C26475
:1014E000D250A9F1C8010E94EB0E97FF07C02FC090
:1014F000B6FE02C0C26001C0C261DA2D812C912CFF
:10150000540120ED280F283080F0C4FF04C0B8013A
:101510000E94650F19C02A3040F0C6FFF8CF2F7D1A
:101520003FEE320F363098F727504C2FC501B401EB
:101530000E94F4094B015C01C260D15059F0C8010E
:101540000E94EB0E97FFDDCFC1FD04C0AACF812C16
:10155000912C5401C7FF08C0B094A094909480943B
:10156000811C911CA11CB11C2C2FB501A401C70129
:101570000E94E80981E0DF91CF911F910F91FF90C8
:10158000EF90BF90AF909F908F900895A0E2B0E051
:10159000ECECFAE00C94EA0F5C01962E7A01F9016A
:1015A0008E010F5F1F4F680180E2D8011D928A955E
:1015B000E9F7D50113968C9080E090E0612C712CB6
:1015C00030E061E070E083FC259183FE21918F0182
:1015D000522E211103C080E090E092C02E3511F40C
:1015E000009751F1432F50E0481759073CF42D352F
:1015F00059F12D3219F4772009F103C0772009F44D
:101600006AC0452D469546954695D601A40FB11D55
:10161000452D47708B0102C0000F111F4A95E2F75C
:10162000A8015C91452B4C93651459F0561410F4A5
:101630005394E7CF5A94E5CF31E004C077247394F4
:1016400001C0712C0196BFCF772019F08E81806286
:101650008E83311103C08824839417C0F6019E0144
:101660002F5D3F4F8081809581932E173F07D1F7E3
:10167000F2CFE114F10429F0D7018C93F7013196F0
:101680007F019A94812C9920F9F0C5010E94EB0EFC
:1016900097FD18C0FC01FF2723E0F595E7952A95F3
:1016A000E1F7EC0DFD1D208130E0AC0147705527BE
:1016B00002C0359527954A95E2F720FDDACFB501AE
:1016C0000E94650F811087CFE114F10411F0D7015A
:1016D0001C92C80115C0422F469546954695D601E5
:1016E000A40FB11D422F47708B0102C0000F111FC4
:1016F0004A95E2F7A8015C91452B4C93622EA2CF4C
:10170000A096EFE00C940610A0E0B0E0EAE8FBE061
:101710000C94EA0F6C01EB015A01FC01178216824E
:10172000512CF601E380FE01E3FC8591E3FE8191FB
:10173000182FEF01882309F4EEC090E00E947B0788
:10174000892B21F0C6010E941B0AEBCF153241F410
:10175000FE01E3FC1591E3FE1191EF01153281F4D6
:10176000C6010E94EB0E97FDD4C0412F50E09C01B2
:10177000332724173507A9F2B6010E94650FCBC0A5
:101780001A3239F4E3FC1591E3FE1191EF0101E007
:1017900001C000E0F12C20ED210F2A3080F402601E
:1017A0006F2D70E080E090E040E20E94F409F62E98
:1017B000FE01E3FC1591E3FE1191EF01ECCF01FF77
:1017C00003C0F11003C0A7C0FF24FA94183619F023
:1017D0001C3651F010C0FE01E3FC1591E3FE11919F
:1017E000EF01183641F408600460FE01E3FC159136
:1017F000E3FE1191EF01112309F48DC0612F70E018
:1018000083EA90E00E94CA0E892B09F484C000FD8F
:1018100007C0F50180809180C50102965C0102C07D
:10182000812C912C1E3651F4F6014681578160E0DF
:1018300070E0202FC4010E94E80973CF1336A9F489
:1018400001FD02C0FF24F394C6010E94EB0E97FD38
:1018500060C08114910429F0F4018083C4010196D1
:101860004C01FA94F110F0CF50C01B3559F49E0191
:10187000A4016F2DC6010E94C60AEC01892B09F054
:1018800044C03EC0C6010E941B0A97FD42C01F36DD
:1018900061F128F4143639F1193651F128C01337A3
:1018A00071F0153701F123C08114910429F0F4017E
:1018B0006082C40101964C01FA94FF2071F0C601C8
:1018C0000E94EB0E3C0197FD08C00E947B07892B0C
:1018D00059F3B601C3010E94650F81149104A9F068
:1018E000F401108212C0006203C0006101C00064F4
:1018F000202FA4016F2DC6010E94340A811105C05A
:10190000F6018381807329F406C000FD0ACF539449
:1019100008CF552019F0852D90E002C08FEF9FEF82
:10192000CDB7DEB7EFE00C940610A9E0B0E0EBE92C
:10193000FCE00C94ED0F6A01122FB02E2BE3201760
:1019400020F0FF24F394F00E02C02CE3F22E0F2DB2
:1019500027E0AE014F5F5F4F0E94EF0DBC01498150
:10196000842F8970813031F0E1FC06C0E0FE06C0B2
:1019700090E205C09DE203C09BE201C090E05E2DB5
:10198000507143FF3CC0911102C083E001C084E06C
:10199000811718F4212F281B01C020E051110BC022
:1019A000F601822F30E2882319F031938150FBCF6A
:1019B000C20ED11C20E0992329F0D6019C93F60198
:1019C00031966F01C6010396E2FE0AC03EE4D601DD
:1019D0003C9341E411964C93119712963C9306C0A8
:1019E0003EE6F601308341E641833283FC01322F2B
:1019F00040E2332309F442C041933150FACF42FF11
:101A000044C0911102C083E001C084E0811718F442
:101A1000212F281B01C020E051110BC0F601822F9D
:101A200030E2882319F031938150FBCFC20ED11CD4
:101A300020E0992329F0D6019C93F60131966F019D
:101A4000C6010396E2FE0BC039E4D6013C933EE4A6
:101A500011963C93119736E412963C9307C039E6F1
:101A6000F60130833EE6318336E63283FC01322FC5
:101A700040E2332319F041933150FBCFFC01E20FD8
:101A8000F11D10828EEF9FEFA6C021E030E0911192
:101A900002C020E030E0161617061CF4FB01319658
:101AA00002C0E1E0F0E02E0F3F1FBB2021F0EB2D44
:101AB000F0E0319602C0E0E0F0E02E0F3F1FE12F92
:101AC000F0E02E173F071CF4121B212F01C020E06D
:101AD0008E2D887159F4F601822F30E2882319F097
:101AE00031938150FBCFC20ED11C20E0992329F005
:101AF000D6019C93F60131966F0151110BC0F6018E
:101B0000822F90E3882319F091938150FBCFC20E6E
:101B1000D11C20E00F2D060F9A81342F307144FF25
:101B200003C0913309F40150101624F4093018F061
:101B300008E001C001E0AB0177FF02C040E050E0E7
:101B4000FB01E41BF50BA1E0B0E0AC0FBD1FEA0FF9
:101B5000FB1F8EE2A82E4B01801A91080B2D10E07E
:101B60001195019511094F3FBFEF5B0721F4D60195
:101B7000AC9211966D01641775072CF084169506CA
:101B800014F4818101C080E3415051093196D6019E
:101B900011967D014017510724F0D6018C936701FF
:101BA000E2CF6417750739F4963320F4953319F4AE
:101BB000311101C081E3F6018083F701822F90E2A9
:101BC000882319F091938150FBCFF701E20FF11DAB
:101BD000108280E090E02996ECE00C940910283007
:101BE00008F027E03327DA01990F311D87FD916056
:101BF00000966105710539F432602E5F3D9330E344
:101C00002A95E1F708959F3F30F08038710561050E
:101C100009F03C5F3C5F3D93913008F08068911D76
:101C2000DF93CF931F930F93FF92EF92192F987F1B
:101C30009695E92F96959695E90FFF27E75FFE4F5A
:101C400099273327EE24FF24A701E7010590089484
:101C5000079428F4360FE71EF81E491F511D660F22
:101C6000771F881F991F0694A1F70590079428F401
:101C7000E70EF81E491F561FC11D770F881F991FB9
:101C8000661F0694A1F70590079428F4F80E491FE3
:101C9000561FC71FD11D880F991F661F771F0694F7
:101CA000A1F70590079420F4490F561FC71FD81FAE
:101CB000990F661F771F881F0694A9F784911095C6
:101CC000177041F0D695C79557954795F794E794C7
:101CD0001A95C1F7EFEAF0E06894159015913591E7
:101CE0006591959105907FE27395E118F10A430B98
:101CF000560BC90BD009C0F7E10CF11E431F561F4C
:101D0000C91FD01D7EF4703311F48A95E6CFE89494
:101D1000015030F0080F0AF40027021708F4202FB2
:101D20002395022F7A3328F079E37D932A95E9F7FA
:101D300010C07D932A9589F60694979567953795F7
:101D400017951794E118F10A430B560BC90BD009EC
:101D500098F023957E9173957A3308F070E37C9325
:101D60002013B8F77E9170617D9330F0839571E315
:101D70007D9370E32A95E1F71124EF90FF900F9186
:101D80001F91CF91DF91992787FD9095089599270D
:101D900088270895FC010590061621F00020D9F748
:101DA000C00108953197CF010895FC01059061505D
:101DB00070400110D8F7809590958E0F9F1F089561
:101DC000FC016150704001900110D8F7809590950A
:101DD0008E0F9F1F0895CF93DF93EC012B8120FF7F
:101DE00033C026FF0AC02F7B2B838E819F810196F3
:101DF0009F838E838A8190E029C022FF0FC0E881F3
:101E0000F9818081082E000C990B009719F420624B
:101E10002B831AC03196F983E8830EC0EA85FB85CF
:101E2000099597FF09C02B81019611F080E201C04E
:101E300080E1822B8B8308C02E813F812F5F3F4F33
:101E40003F832E83992702C08FEF9FEFDF91CF91C1
:101E500008950F931F93CF93DF93FB01238121FDFF
:101E600003C08FEF9FEF2CC022FF16C04681578121
:101E7000248135814217530744F4A081B1819D012B
:101E80002F5F3F4F318320838C93268137812F5FD3
:101E90003F4F3783268314C08B01EC01FB01008484
:101EA000F185E02D0995892BE1F6D80116968D91E3
:101EB0009C911797019617969C938E931697CE0137
:101EC000DF91CF911F910F910895FB01238120FF96
:101ED00012C026FD10C08F3F3FEF930761F0828351
:101EE0002F7D206423832681378121503109378358
:101EF0002683992708958FEF9FEF0895FA01AA2767
:101F0000283051F1203181F1E8946F936E7F6E5F3C
:101F10007F4F8F4F9F4FAF4FB1E03ED0B4E03CD0EA
:101F2000670F781F891F9A1FA11D680F791F8A1FCD
:101F3000911DA11D6A0F711D811D911DA11D20D034
:101F400009F468943F912AE0269F11243019305DEE
:101F50003193DEF6CF010895462F4770405D4193DF
:101F6000B3E00FD0C9F7F6CF462F4F70405D4A332C
:101F700018F0495D31FD4052419302D0A9F7EACFF4
:101F8000B4E0A6959795879577956795BA95C9F723
:101F900000976105710508959B01AC010A2E069416
:101FA0005795479537952795BA95C9F7620F731FCF
:101FB000841F951FA01D08950E941E10A59F900DBF
:101FC000B49F900DA49F800D911D112408952F9210
:101FD0003F924F925F926F927F928F929F92AF92B9
:101FE000BF92CF92DF92EF92FF920F931F93CF9306
:101FF000DF93CDB7DEB7CA1BDB0B0FB6F894DEBF9D
:102000000FBECDBF09942A88398848885F846E84C2
:102010007D848C849B84AA84B984C884DF80EE800C
:10202000FD800C811B81AA81B981CE0FD11D0FB615
:10203000F894DEBF0FBECDBFED010895A29FB001A1
:10204000B39FC001A39F700D811D1124911DB29FEC
:0E205000700D811D1124911D0895F894FFCF8D
:10205E0053656E64202747272C20274D2C6E2C6449
:10206E0074272C206F722027532C632C76270D0A91
:10207E000052656365697665643A2025730D0A0022
:10208E004700566F6C746167653A20257320560DB4
:10209E000A004D2C25642C25640054616B696E6713
:1020AE002025642072656164696E677320657665AC
:1020BE007279202564207365633A0D0A00743D25FC
:1020CE006420732C20763D257320560D0A00496E30
:1020DE0076616C696420666F726D6174206F722018
:1020EE0072616E67652120557365204D2C6E2C64D0
:1020FE007420286E3A322D32302C2064743A312DF1
:10210E003130290D0A00532C0025642C0044414324
:10211E00206368616E6E656C202564207365742083
:10212E00746F20257320562028256464290D0A001B
:10213E00496E76616C696420666F726D6174206F92
:10214E00722072616E6765212055736520532C6372
:10215E002C762028633A302D312C20763A302E30D2
:10216E00302D352E3030290D0A004D697373696E8E
:10217E006720766F6C746167652076616C75652E6D
:10218E0020466F726D61743A20532C632C760D0AC3
:10219E0000496E76616C6964206368616E6E656C71
:1021AE002E20466F726D61743A20532C632C760D7F
:1021BE000A00556E6B6E6F776E20636F6D6D616E7C
:1021CE00642E20557365202747272C20274D2C6E13
:1021DE002C6474272C206F722027532C632C7627A7
:0421EE000D0A0000D6
:00000001FF
