S014000046696E616C50726F6A6563742E737265634F
S11300000C94B1000C9404050C94CE000C94CE0016
S11300100C94CE000C94CE000C9437050C94CE00B6
S11300200C94CE000C94CE000C94CE000C94CE0014
S11300300C94CE000C94CE000C94CE000C94CE0004
S11300400C94CE000C94CE000C94CE000C94CE00F4
S11300500C94CE000C94CE000C94CE000C94CE00E4
S11300600C94CE000C94CE0000407A10F35A00A0F9
S1130070724E18090010A5D4E80000E8764817006D
S113008000E40B54020000CA9A3B000000E1F505AD
S1130090000080969800000040420F000000A086F7
S11300A001000000102700000000E8030000000029
S11300B06400000000000A000000000001000000CD
S11300C000002C76D888DC674F0823DFC1DFAE59E7
S11300D0E1B1B796E5E3E453C63AE651997696E87A
S11300E0E6C28426EB898C9B62ED407C6FFCEFBCFE
S11300F09C9F40F2BAA56FA5F490055A2AF75C9329
S11301006B6CF9676DC11BFCE0E40D47FEF520E65E
S1130110B500D0ED902E0300943577050080841E41
S1130120080000204E0A000000C80C333333330F9C
S1130130986E12831141EF8D2114893BE65516CF39
S1130140FEE6DB18D1844B381BF77C1D901DA4BB45
S1130150E424203284725E228100C9F124ECA1E5FA
S11301603D2711241FBECFEFD8E0DEBFCDBF11E085
S1130170A0E0B1E0E6E4F4E102C005900D92A23300
S1130180B107D9F721E0A2E3B1E001C01D92AD3877
S1130190B207E1F70E9451050C94210A0C94000067
S11301A0CF93C62F95B19B7F95B990E0880F991F87
S11301B08E770E9496028C2F0E94960285B18460ED
S11301C085B9CF91089595B19B7F95B990E0880F3B
S11301D0991F8E7780680E94960280E00E949602A2
S11301E095B1946095B908956FE081E00E94D000C4
S11301F008950E94F4006DE88AE20E94D0006EE344
S11302008BE20E94D0006EE18CE20E94D00060E09C
S11302108DE20E94D00060E485E10E94D0006DE38D
S113022081E10E94D00084E10E94E300982F937042
S113023029F4682F636084E10E94D00008954F92EE
S11302405F926F927F928F929F92AF92BF92CF9262
S1130250DF92EF92FF920F931F93CF93DF93D82FE8
S11302607B01C42F59018C3029F08E3061F0912C20
S1130270812C10C00F2EF0E39F2EF02D0F2EF7E7E8
S11302808F2EF02D07C06894992494F80F2EF2E174
S11302908F2EF02D84E00E94E300682F6F7784E0B6
S11302A00E94D0008AE00E94E300682F60688AE020
S11302B00E94D00060E081E00E94D000412C512CCB
S11302C032010CC0F701E40DF51D608189E00E9444
S11302D0D0008FEF481A580A680A780A8C2F90E0E9
S11302E0A0E0B0E0481659066A067B0658F36D2F65
S11302F081E00E94D000DC3041F48DE00E94E300F4
S1130300682F60688DE00E94D0000F2EF0EDCF2E94
S1130310F7E0DF2EE12CF12CF02D84E00E94E300C5
S1130320C82FE1E0CE1AD108E108F10829F080FDD8
S113033003C0892D8C2389F38DE00E94E300682F8C
S11303406F778DE00E94D000CD28CE28CF2809F405
S113035060C086E00E94E3008B7109F05CC0C82194
S1130360C0FD02C0C1E001C0C2E0DC3009F054C0ED
S11303708AE00E94E300D82F8CE00E94E300282F3B
S11303802770A9F08D2F90E00197880F991F880F8F
S1130390991F880F991F820F911D092E000CAA0B1B
S11303A0BB0BF80180839183A283B38311C08D2F8B
S11303B090E0880F991F880F991F880F991F092EA5
S11303C0000CAA0BBB0BF80180839183A283B38337
S11303D0D11101C0D1E0D13108F0D0E1C12CD12C30
S11303E076010DC085010C0D1D1D89E00E94E300FE
S11303F0F8018083FFEFCF1ADF0AEF0AFF0A8D2F7F
S113040090E0A0E0B0E0C816D906EA06FB0650F377
S113041003C0C3E001C0C3E08C2FDF91CF911F91D3
S11304200F91FF90EF90DF90CF90BF90AF909F908F
S11304308F907F906F905F904F900895EF92FF920E
S11304400F931F93CF93DF9300D000D0CDB7DEB7C7
S1130450182F7B0167E08DE00E94D000F701108324
S11304608E010F5F1F4F970141E0B7018CE00E949E
S11304701F01813051F449815A816B817C81403163
S113048051056105710519F403C083E001C083E0DF
S11304900F900F900F900F90DF91CF911F910F91BC
S11304A0FF90EF900895EF92FF920F931F93CF93D5
S11304B0DF9300D000D0CDB7DEB77C0160E08DE0E3
S11304C00E94D00083E9F701808380E281838E015A
S11304D00F5F1F4F970142E0B7018CE00E941F019C
S11304E0813091F407C0F701E90FF11D3081232712
S11304F09F5F02C020E090E09430A8F3F701E90F79
S1130500F11D9081291383E00F900F900F900F90AD
S1130510DF91CF911F910F91FF90EF90089584B1D7
S11305208C6284B98CB581658CBD08958EBD0DB483
S113053007FEFDCF8EB508958AB18F7D8AB98BB140
S11305408F7D8BB98AB180648AB98BB18F7B8BB96B
S11305508AB180618AB98BB18F7E8BB908958DB3CE
S113056081608DBBE9E6F0E08081816080837894CE
S113057008950E949C020E94AF0208958BB180648A
S11305808BB920E52A95F1F78BB18F7B8BB98FEF6F
S113059099EF20E0815090402040E1F700C0000036
S11305A008956091790170917A0180E090E00E9451
S11305B074062AE63CE349EE52E40E94CC05089511
S11305C08F929F92AF92BF92CF92DF92EF92FF925F
S11305D00F931F93CF93DF93CDB7DEB728970FB652
S11305E0F894DEBF0FBECDBF6C018BB180618BB9B7
S11305F02FEF82E597E0215080409040E1F700C062
S11306000000E12C10E080C0F6011082F12C812C56
S1130610912C540126C00E94BE020F2D10E00E94AE
S1130620D1029B01AC01000F111F000F111FE1E06B
S1130630F0E0EC0FFD1FE00FF11F608371838283F4
S11306409383C501B4010E945B054B015C01FFEF7C
S113065020E782E0F15020408040E1F700C0000034
S1130660F39491E09F15B8F620E030E040E05FE3BA
S1130670C501B4010E942B074B015C010E94450691
S1130680162F20E030E0A901C501B4010E94C7057E
S1130690181624F08DE0F601808335C020E030E0A8
S11306A040EA51E4C501B4010E94C705181624F0BC
S11306B08FE0F601808327C069817A818B819C81D8
S11306C02D813E814F8158850E945A050E943E0625
S11306D09B01772324F422273327261B370B26304C
S11306E0310524F08CE0F60180830DC020E030E079
S11306F04AE753E4C501B4010E942607882344F065
S11307008EE0F6018083E394F3E0FE1508F07CCFDD
S1130710812F28960FB6F894DEBF0FBECDBFDF91B0
S1130720CF911F910F91FF90EF90DF90CF90BF90EA
S1130730AF909F908F9008950E948F020E94F900BD
S113074082E00E94E30080933801682F606282E0B7
S11307500E94D00083E00E94E30080933801682F58
S1130760606883E00E94D00008958AB180638AB9EA
S113077087B18F7E87B987B18F7D87B90E949C032B
S11307800E94B90288B1806188B988B1806288B951
S113079010923501109234011092330110928B01A2
S11307A081E090E0909337018093360110928C01A0
S11307B0109232018BB18F7C8BB908959093C50050
S11307C08093C40088E08093C10086E08093C200D7
S11307D008959091C00095FFFCCF8093C6000895C2
S11307E0CF93DF93EC0103C021960E94E903888133
S11307F08111FACFDF91CF9108950F931F93CF9377
S1130800DF93CDB7DEB760970FB6F894DEBF0FBEA7
S1130810CDBF8E010F5F1F4F22E030E045E050E076
S11308200E949807C8010E94F00360960FB6F894DE
S1130830DEBF0FBECDBFDF91CF911F910F91089501
S113084080E091E00E94F0038FE291E00E94F003C7
S11308506BE771E082E50E941E02809338011092DA
S11308608C018130C9F58BE791E00E94530280939B
S11308703801813089F580917B018136E1F48091E2
S11308807C018432C1F480917D018831A1F480918E
S11308907E01823081F480917F018F3561F488E09C
S11308A091E00E94F0038FE291E00E94F00381E066
S11308B080938C0108C083E191E00E94F0038FE2F1
S11308C091E00E94F0032FEF81E19AE721508040EC
S11308D09040E1F700C000002FEF83ED90E321503A
S11308E080409040E1F700C00000089583E391E068
S11308F00E94E00290E090933501809334018E30A1
S1130900910520F0865491090B9720F481E080939F
S1130910320102C01092320181E291E00E94F003A0
S1130920609134017091350180E090E00E9474067A
S11309300E94FD038CE291E00E94F00380918C01FF
S1130940811150C00E9420044DC083E391E00E94B5
S1130950E00290E090933501809334018E3091054C
S113096020F0815491090B9720F481E080933201A7
S113097004C010928C011092320181E291E00E9435
S1130980F003609134017091350180E090E00E94A1
S113099074060E94FD038CE291E00E94F0033499F6
S11309A00EC034990CC08BB180628BB906C08FE342
S11309B09CE90197F1F700C00000349BF8CF35990A
S11309C00EC035990CC08BB180618BB906C08FE322
S11309D09CE90197F1F700C00000359BF8CF8BB17B
S11309E08F7C8BB980913201882321F080918C0116
S11309F08111ABCF9FEF21EE84E0915020408040E5
S1130A00E1F700C0000008951F920F920FB60F92F5
S1130A1011248F939F93EF93FF9380918B018823ED
S1130A2019F0813051F01AC081E080938B01E1E824
S1130A30F0E080818260808311C010928B01E1E834
S1130A40F0E080818D7F8083E4E8F0E08081918113
S1130A5090937A018093790111821082FF91EF9132
S1130A609F918F910F900FBE0F901F9018951F921A
S1130A700F920FB60F9211248F939F93809136019A
S1130A8090913701892B31F481E090E09093370104
S1130A90809336019F918F910F900FBE0F901F90FE
S1130AA0189587E690E00E94DE030E94B5030E9439
S1130AB07604FDCF5058BB27AA270E9472050C94D8
S1130AC0EC060E94DE0638F00E94E50620F039F4B8
S1130AD09F3F19F426F40C94DB060EF4E095E7FB33
S1130AE00C94D506E92F0E94FD0658F3BA17620745
S1130AF073078407950720F079F4A6F50C941F0773
S1130B000EF4E0950B2EBA2FA02D0B01B901900124
S1130B100C01CA01A0011124FF27591B99F0593F68
S1130B2050F4503E68F11A16F040A22F232F342FB0
S1130B304427585FF3CF469537952795A795F040FE
S1130B405395C9F77EF41F16BA0B620B730B840B13
S1130B50BAF09150A1F0FF0FBB1F661F771F881FCB
S1130B60C2F70EC0BA0F621F731F841F48F4879523
S1130B7077956795B795F7959E3F08F0B0CF939515
S1130B80880F08F09927EE0F9795879508950E948E
S1130B90B10608F481E008950E94E0050C94EC0687
S1130BA00E94E50658F00E94DE0640F029F45F3FFB
S1130BB029F00C94D50651110C9420070C94DB06F3
S1130BC00E94FD0668F39923B1F3552391F3951B15
S1130BD0550BBB27AA2762177307840738F09F5F5A
S1130BE05F4F220F331F441FAA1FA9F335D00E2EC7
S1130BF03AF0E0E832D091505040E695001CCAF734
S1130C002BD0FE2F29D0660F771F881FBB1F2617F6
S1130C1037074807AB07B0E809F0BB0B802DBF01CD
S1130C20FF2793585F4F3AF09E3F510578F00C949C
S1130C30D5060C9420075F3FE4F3983ED4F38695E1
S1130C4077956795B795F7959F5FC9F7880F911DBD
S1130C509695879597F90895E1E0660F771F881FA9
S1130C60BB1F621773078407BA0720F0621B730B5C
S1130C70840BBA0BEE1F88F7E09508950E94450691
S1130C806894B1110C94200708950E94050788F018
S1130C909F5798F0B92F9927B751B0F0E1F0660F3C
S1130CA0771F881F991F1AF0BA95C9F714C0B1307D
S1130CB091F00E941F07B1E008950C941F07672F5D
S1130CC0782F8827B85F39F0B93FCCF386957795AC
S1130CD06795B395D9F73EF4909580957095619595
S1130CE07F4F8F4F9F4F0895E89409C097FB3EF4C0
S1130CF090958095709561957F4F8F4F9F4F992365
S1130D00A9F0F92F96E9BB279395F69587957795E2
S1130D106795B795F111F8CFFAF4BB0F11F460FFA2
S1130D201BC06F5F7F4F8F4F9F4F16C0882311F0FA
S1130D3096E911C0772321F09EE8872F762F05C00E
S1130D40662371F096E8862F70E060E02AF09A95A9
S1130D50660F771F881FDAF7880F9695879597F99E
S1130D600895990F0008550FAA0BE0E8FEEF161638
S1130D701706E807F907C0F012161306E407F5078B
S1130D8098F0621B730B840B950B39F40A2661F0FF
S1130D90232B242B252B21F408950A2609F4A140A2
S1130DA0A6958FEF811D811D089597F99F6780E8AF
S1130DB070E060E008959FEF80EC089500240A94A9
S1130DC01616170618060906089500240A94121622
S1130DD01306140605060895092E0394000C11F455
S1130DE0882352F0BB0F40F4BF2B11F460FF04C002
S1130DF06F5F7F4F8F4F9F4F089557FD9058440F5B
S1130E00551F59F05F3F71F04795880F97FB991F65
S1130E1061F09F3F79F08795089512161306140622
S1130E20551FF2CF4695F1DF08C0161617061806AF
S1130E30991FF1CF86957105610508940895E8948A
S1130E40BB2766277727CB0197F908950E94B1063F
S1130E5008F48FEF08950E943E070C94EC060E945C
S1130E60DE0638F00E94E50620F0952311F00C947C
S1130E70D5060C94DB0611240C9420070E94FD0671
S1130E8070F3959FC1F3950F50E0551F629FF001D9
S1130E90729FBB27F00DB11D639FAA27F00DB11DF2
S1130EA0AA1F649F6627B00DA11D661F829F22277B
S1130EB0B00DA11D621F739FB00DA11D621F839F02
S1130EC0A00D611D221F749F3327A00D611D231FD8
S1130ED0849F600D211D822F762F6A2F11249F5726
S1130EE050409AF0F1F088234AF0EE0FFF1FBB1F29
S1130EF0661F771F881F91505040A9F79E3F5105E8
S1130F0080F00C94D5060C9420075F3FE4F3983EE0
S1130F10D4F3869577956795B795F795E7959F5F91
S1130F20C1F7FE2B880F911D9695879597F9089523
S1130F30EF920F931F93CF93DF93E80147FD02C015
S1130F4034E001C034E1042E000C550B57FF03C0FC
S1130F50519541955109E32E022F242FAE010E9491
S1130F60B807CE01DF91CF911F910F91EF900895B3
S1130F70A9E0B0E0EEEBF7E00C94F0096A01122F5F
S1130F80B02E2BE3201720F0FF24F394F00E02C0C0
S1130F902CE3F22E0F2D27E0AE014F5F5F4F0E942E
S1130FA01209BC014981842F8970813031F0E1FC40
S1130FB006C0E0FE06C090E205C09DE203C09BE2CD
S1130FC001C090E05E2D507143FF3CC0911102C0FE
S1130FD083E001C084E0811718F4212F281B01C08D
S1130FE020E051110BC0F601822F30E2882319F062
S1130FF031938150FBCFC20ED11C20E0992329F0FC
S1131000D6019C93F60131966F01C6010396E2FE68
S11310100AC03EE4D6013C9341E411964C931197E7
S113102012963C9306C03EE6F601308341E64183C6
S11310303283FC01322F40E2332309F442C041934E
S11310403150FACF42FF44C0911102C083E001C085
S113105084E0811718F4212F281B01C020E05111CE
S11310600BC0F601822F30E2882319F031938150AE
S1131070FBCFC20ED11C20E0992329F0D6019C930A
S1131080F60131966F01C6010396E2FE0BC039E406
S1131090D6013C933EE411963C93119736E41296A4
S11310A03C9307C039E6F60130833EE6318336E6E9
S11310B03283FC01322F40E2332319F04193315043
S11310C0FBCFFC01E20FF11D10828EEF9FEFA6C053
S11310D021E030E0911102C020E030E0161617063E
S11310E01CF4FB01319602C0E1E0F0E02E0F3F1F3B
S11310F0BB2021F0EB2DF0E0319602C0E0E0F0E0FF
S11311002E0F3F1FE12FF0E02E173F071CF4121B98
S1131110212F01C020E08E2D887159F4F601822F11
S113112030E2882319F031938150FBCFC20ED11CD9
S113113020E0992329F0D6019C93F60131966F01A2
S113114051110BC0F601822F90E3882319F091937B
S11311508150FBCFC20ED11C20E00F2D060F9A81C7
S1131160342F307144FF03C0913309F40150101639
S113117024F4093018F008E001C001E0AB0177FF66
S113118002C040E050E0FB01E41BF50BA1E0B0E03D
S1131190AC0FBD1FEA0FFB1F8EE2A82E4B01801A75
S11311A091080B2D10E01195019511094F3FBFEFE8
S11311B05B0721F4D601AC9211966D016417750793
S11311C02CF08416950614F4818101C080E341500B
S11311D051093196D60111967D014017510724F02B
S11311E0D6018C936701E2CF6417750739F49633FF
S11311F020F4953319F4311101C081E3F6018083A1
S1131200F701822F90E2882319F091938150FBCF4C
S1131210F701E20FF11D108280E090E02996ECE0E6
S11312200C940C0A283008F027E03327DA01990FD0
S1131230311D87FD916000966105710539F43260B6
S11312402E5F3D9330E32A95E1F708959F3F30F0F8
S113125080387105610509F03C5F3C5F3D93913036
S113126008F08068911DDF93CF931F930F93FF9233
S1131270EF92192F987F9695E92F96959695E90FF9
S1131280FF27EE53FF4F99273327EE24FF24A701AE
S1131290E70105900894079428F4360FE71EF81E1A
S11312A0491F511D660F771F881F991F0694A1F7C8
S11312B00590079428F4E70EF81E491F561FC11D18
S11312C0770F881F991F661F0694A1F7059007944E
S11312D028F4F80E491F561FC71FD11D880F991FE8
S11312E0661F771F0694A1F70590079420F4490F11
S11312F0561FC71FD81F990F661F771F881F069494
S1131300A9F784911095177041F0D695C795579514
S11313104795F794E7941A95C1F7E8E6F0E06894E6
S11313201590159135916591959105907FE273958E
S1131330E118F10A430B560BC90BD009C0F7E10CB5
S1131340F11E431F561FC91FD01D7EF4703311F4C4
S11313508A95E6CFE894015030F0080F0AF400278C
S1131360021708F4202F2395022F7A3328F079E30B
S11313707D932A95E9F710C07D932A9589F6069402
S113138097956795379517951794E118F10A430BCC
S1131390560BC90BD00998F023957E9173957A3337
S11313A008F070E37C932013B8F77E9170617D930D
S11313B030F0839571E37D9370E32A95E1F711246E
S11313C0EF90FF900F911F91CF91DF91992787FDA7
S11313D0909508952F923F924F925F926F927F92D1
S11313E08F929F92AF92BF92CF92DF92EF92FF9231
S11313F00F931F93CF93DF93CDB7DEB7CA1BDB0BDD
S11314000FB6F894DEBF0FBECDBF09942A88398881
S113141048885F846E847D848C849B84AA84B98488
S1131420C884DF80EE80FD800C811B81AA81B98194
S1131430CE0FD11D0FB6F894DEBF0FBECDBFED01A8
S10914400895F894FFCFAB
S1131446496E20524649440043617264206D6174BA
S11314566368004E6F2063617264206D6174636813
S11314660044697374616E63653A200020636D0DF0
S10514760A0066
S9030000FC
