:020000020000FC
:100000003F0006005B004F0066006D007D000700AA
:100010007F006F0077007C0039005E00790071007E
:10002000219A229A239A2098259A40E0549855982C
:1000300029982A982B9800E4B5D02D9820E070E0FC
:1000400060E059B1507390E0503051F091E0503180
:1000500039F092E0503321F093E0503209F032C091
:10006000981781F1803019F4913059F113C0813023
:1000700019F4923031F10EC0823019F4933009F145
:1000800009C0833039F4903029F42F3094F523954A
:100090007BD017C0803019F4933099F012C08330B0
:1000A00019F4923071F00DC0823019F4913049F09A
:1000B00008C0813031F4903021F42030F1F02A95DD
:1000C00063D0892F189B03C06530D9F0BACF2D9A21
:1000D0008BD02D98189903C0439586D0F8CF44361D
:1000E00098F000C040E000E45DD020E060E070E007
:1000F000A8CF01E757D072D0A4CF0FE353D06ED072
:10010000A0CF753011F12FC0603049F0613059F047
:10011000623069F0633079F0643089F092CF639592
:10012000253089F08ECF6395243069F08ACF6395AE
:10013000233049F086CF6395293029F082CF63952B
:10014000233009F07ECF73957CCF20E060E070E033
:1001500000E828D02D9A42D041D040D03FD02D98F1
:1001600000E420D06ECF20E060E070E008E01AD01C
:1001700035D034D033D032D031D030D02FD02ED073
:100180002DD000E40FD05DCFE0E0F0E0522F550F0E
:10019000E50F50E0F51F049105D026D025D024D0DE
:1001A00023D04FCF0F931F931FB71F9318E0001F4B
:1001B00010F0299801C0299A2A9A00000000000036
:1001C00000002A981A9599F72B9A00000000000069
:1001D0002B981F911FBF1F910F910895B4E6B03067
:1001E00003D0BA95E1F7089585E085BD84E686BD24
:1001F000E5B5F0E0F5BDF5B3F160F5BB86BDE5BD55
:08020000F5B3F0FFFDCF0895F6
:00000001FF
