:100000000C943A000C944F000C944F000C944F0049
:100010000C944F000C944F000C944F000C944F0024
:100020000C944F000C944F000C944F000C944F0014
:100030000C944F000C944F000C944F000C944F0004
:100040000C944F000C944F000C944F000C944F00F4
:100050000C944F000C944F000C944F000C944F00E4
:100060000C944F000C944F006364696E6F7073754D
:1000700078585B0011241FBECFEFD8E0DEBFCDBFA4
:1000800012E0A0E0B1E0ECE0F6E102C005900D92D4
:10009000AC32B107D9F70E94C2010C94040B0C9446
:1000A0000000CF93DF93CDB7DEB784E290E024E287
:1000B00030E0F90120812C62FC0120838CE490E087
:1000C00021E5FC0120830000DF91CF910895CF93BB
:1000D000DF931F92CDB7DEB789838EE490E029814C
:1000E000FC01208300008DE490E0FC0180818823E6
:1000F000D4F700000F90DF91CF910895CF93DF9355
:1001000000D0CDB7DEB79A83898385EC90E0298152
:100110003A81232F3327FC01208384EC90E029814E
:10012000FC01208381EC90E028E1FC01208382EC3B
:1001300090E026E0FC01208300000F900F90DF91FB
:10014000CF910895CF93DF931F92CDB7DEB7898308
:10015000000080EC90E0FC018081882F90E08072AC
:100160009927892BB1F386EC90E02981FC0120834B
:1001700000000F90DF91CF910895CF93DF9300D0CF
:10018000CDB7DEB79A8389830BC089819A819C01A0
:100190002F5F3F4F3A832983FC0180810E94A20098
:1001A00089819A81FC018081882379F700000F9072
:1001B0000F90DF91CF910895CF93DF93CDB7DEB746
:1001C000000080EC90E0FC0180818823D4F786EC6D
:1001D00090E0FC018081DF91CF910895CF93DF9370
:1001E000CDB7DEB78CE790E020E4FC0120838AE7FE
:1001F00090E027E8FC0120830000DF91CF91089573
:10020000CF93DF93CDB7DEB78CE790E02CE730E0FB
:10021000F9012081207FFC0120838AE790E02AE712
:1002200030E0F90120812064FC01208300008AE78E
:1002300090E0FC018081882F90E080749927892BC1
:10024000B1F788E790E0FC0180819181DF91CF9147
:100250000895CF93DF9300D000D0CDB7DEB7698388
:100260007A838B839C8320E030E040EA50E469810C
:100270007A818B819C810E946604181644F480E088
:1002800090E0A0EAB0E489839A83AB83BC8320E04A
:1002900030E0A90169817A818B819C810E940E03E3
:1002A000882324F419821A821B821C8220E030E009
:1002B00040EA50E469817A818B819C810E9413031A
:1002C000DC01CB0120E030EC4FE754E4BC01CD0170
:1002D0000E946B04DC01CB01BC01CD010E948503AF
:1002E000DC01CB010F900F900F900F90DF91CF9119
:1002F0000895CF93DF93CDB7DEB729970FB6F89463
:10030000DEBF0FBECDBF8D834E835F836887798745
:100310008E819F81A885B985BC01CD010E942901EC
:100320009B838A838A819B81892F99278370898304
:100330008A818C838D81813019F4898184608983DD
:1003400085E290E025E230E0F90120812B7FFC017D
:10035000208389810E9467008C810E94670085E26A
:1003600090E025E230E0F90120812460FC01208347
:10037000000029960FB6F894DEBF0FBECDBFDF9107
:10038000CF910895CF93DF93CDB7DEB7C355D10991
:100390000FB6F894DEBF0FBECDBF19820E94510088
:1003A00087E690E00E947E000E94EE0080E091E0EF
:1003B0000E94BD0086E391E00E94BD000E94DC0027
:1003C0008A838A818A30F9F08A818D30E1F08981CF
:1003D0008331C8F4898191E0980F9983882F90E048
:1003E0009E01275F3F4F820F931F2A81FC012083CC
:1003F0008981882F90E09E01275F3F4F820F931FD6
:10040000FC0110820AC189818823C1F28981882F69
:1004100090E09E01275F3F4F820F931FFC011082E7
:10042000198289E591E00E94BD00CE0109960E94E3
:10043000BD0084E691E00E94BD008985833509F006
:1004400097C0CE01815B9F4FFC011082CE01805B83
:100450009F4FFC011082118212821382CE01805BB9
:100460009F4F292F2F938F93CE01815B9F4F292F71
:100470002F938F9387E691E0892F8F9387E691E002
:100480008F93CE010996292F2F938F930E940805F1
:100490002DB73EB7285F3F4F0FB6F894DEBF0FBEB3
:1004A000CDBF029709F05FC0CE01815B9F4FFC0179
:1004B0008081882341F0CE01815B9F4FFC018081C8
:1004C000813009F04BC0CE01805B9F4FFC018081E1
:1004D0009181A281B3819E01215B3F4FF90120816F
:1004E000AC01BD01822F0E947901CE01805B9F4F3C
:1004F000FC0180819181A281B3819E01215B3F4FEC
:10050000F9012081222F30E04B2F4F934A2F4F9338
:10051000492F4F938F93832F8F93822F8F938FE643
:1005200091E0892F8F938FE691E08F931F9288E25D
:100530008F93CE018796292F2F938F930E94D804F3
:100540002DB73EB7245F3F4F0FB6F894DEBF0FBE06
:10055000CDBFCE0187960E94BD005FC08EE891E0BE
:100560000E94BD002BCF84EB91E00E94BD0026CFFE
:100570008985873409F04DC00E9400019C838B83DC
:100580008B819C81CC01A0E0B0E0BC01CD010E9438
:10059000B403DC01CB0120E030E040EA50E4BC01D0
:1005A000CD010E946B04DC01CB0120E030EC4FE771
:1005B00054E4BC01CD010E941303DC01CB018D8307
:1005C0009E83AF83B88788858F938F818F938E8129
:1005D0008F938D818F938FED91E0892F8F938FED86
:1005E00091E08F931F9288E28F93CE018796292FF7
:1005F0002F938F930E94D8048DB79EB70A960FB69B
:10060000F894DEBF0FBECDBFCE0187960E94BD001D
:10061000D5CE81EF91E00E94BD00D0CE0E94F103C3
:1006200008F481E008950E9427030C942C040E9492
:10063000250458F00E941E0440F029F45F3F29F081
:100640000C94150451110C9460040C941B040E942A
:100650003D0468F39923B1F3552391F3951B550B92
:10066000BB27AA2762177307840738F09F5F5F4F85
:10067000220F331F441FAA1FA9F335D00E2E3AF0C4
:10068000E0E832D091505040E695001CCAF72BD0DC
:10069000FE2F29D0660F771F881FBB1F261737072D
:1006A0004807AB07B0E809F0BB0B802DBF01FF275F
:1006B00093585F4F3AF09E3F510578F00C94150423
:1006C0000C9460045F3FE4F3983ED4F386957795ED
:1006D0006795B795F7959F5FC9F7880F911D969518
:1006E000879597F90895E1E0660F771F881FBB1F74
:1006F000621773078407BA0720F0621B730B840B21
:10070000BA0BEE1F88F7E09508950E94450488F023
:100710009F5798F0B92F9927B751B0F0E1F0660FC5
:10072000771F881F991F1AF0BA95C9F714C0B13006
:1007300091F00E945F04B1E008950C945F04672F6C
:10074000782F8827B85F39F0B93FCCF38695779535
:100750006795B395D9F73EF490958095709561951E
:100760007F4F8F4F9F4F0895E89409C097FB3EF449
:1007700090958095709561957F4F8F4F9F4F9923EE
:10078000A9F0F92F96E9BB279395F695879577956C
:100790006795B795F111F8CFFAF4BB0F11F460FF2C
:1007A0001BC06F5F7F4F8F4F9F4F16C0882311F084
:1007B00096E911C0772321F09EE8872F762F05C098
:1007C000662371F096E8862F70E060E02AF09A9533
:1007D000660F771F881FDAF7880F9695879597F928
:1007E0000895990F0008550FAA0BE0E8FEEF1616C2
:1007F0001706E807F907C0F012161306E407F50715
:1008000098F0621B730B840B950B39F40A2661F088
:10081000232B242B252B21F408950A2609F4A1402B
:10082000A6958FEF811D811D089597F99F6780E838
:1008300070E060E008959FEF80EC089500240A9432
:100840001616170618060906089500240A941216AB
:100850001306140605060895092E0394000C11F4DE
:10086000882352F0BB0F40F4BF2B11F460FF04C08B
:100870006F5F7F4F8F4F9F4F089557FD9058440FE4
:10088000551F59F05F3F71F04795880F97FB991FEF
:1008900061F09F3F79F087950895121613061406AC
:1008A000551FF2CF4695F1DF08C016161706180639
:1008B000991FF1CF86957105610508940895E89414
:1008C000BB2766277727CB0197F908950E94F1038C
:1008D00008F48FEF08950E947E040C942C040E946B
:1008E0001E0438F00E94250420F0952311F00C948A
:1008F00015040C941B0411240C9460040E943D0404
:1009000070F3959FC1F3950F50E0551F629FF00162
:10091000729FBB27F00DB11D639FAA27F00DB11D7B
:10092000AA1F649F6627B00DA11D661F829F222704
:10093000B00DA11D621F739FB00DA11D621F839F8B
:10094000A00D611D221F749F3327A00D611D231F61
:10095000849F600D211D822F762F6A2F11249F57AF
:1009600050409AF0F1F088234AF0EE0FFF1FBB1FB2
:10097000661F771F881F91505040A9F79E3F510571
:1009800080F00C9415040C9460045F3FE4F3983EEF
:10099000D4F3869577956795B795F795E7959F5F1B
:1009A000C1F7FE2B880F911D9695879597F90895AD
:1009B000AEE0B0E0EEEDF4E00C94DB0A0D891E89A8
:1009C0008F89988D26E02C831A83098397FF02C0B4
:1009D00080E090E801979E838D83AE01455E5F4F76
:1009E000698D7A8DCE0101960E9421054D815E812F
:1009F00057FD0AC02F813885421753070CF49A011E
:100A0000F801E20FF31F10822E96E4E00C94F70A2F
:100A1000AEE0B0E0EEE0F5E00C94DD0A85E08C831A
:100A20008B899C899A838983AE01495E5F4F6D896A
:100A30007E89CE0101960E949E082E96E2E00C94DB
:100A4000F90AABE0B0E0E7E2F5E00C94CD0A6C0106
:100A50007B018A01FC0117821682838181FFCCC150
:100A6000CE0101963C01F6019381F70193FD85913A
:100A700093FF81917F01882309F4BAC1853239F44B
:100A800093FD859193FF81917F01853229F4B60111
:100A900090E00E94170AE7CF912C212C312CFFE126
:100AA000F315D8F08B3279F038F4803279F0833254
:100AB000A1F4232D20611DC08D3261F0803369F4D3
:100AC000232D216016C0832D8260382EE32DE46033
:100AD0003E2E2AC0F32DF8601DC037FC2DC020ED3E
:100AE000280F2A3040F08E32B9F436FC81C1232D14
:100AF0002064322E19C036FE06C08AE0989E200D72
:100B00001124922E11C0EAE02E9E200D1124222ED7
:100B1000F32DF0623F2E08C08C3621F4832D8068BF
:100B2000382E02C0883641F4F70193FD859193FF7A
:100B300081917F018111B3CF982F9F7D9554933080
:100B400028F40C5F1F4F9FE399830DC0833631F06B
:100B5000833771F0833509F059C021C0F8018081D5
:100B600089830E5F1F4F88248394912C530113C0F7
:100B70002801F2E04F0E511CF801A080B18036FE32
:100B800003C0692D70E002C06FEF7FEFC5010E94C6
:100B9000CE094C018201F32DFF773F2E16C02801AC
:100BA00022E0420E511CF801A080B18036FE03C045
:100BB000692D70E002C06FEF7FEFC5010E94C3098D
:100BC0004C01F32DF0683F2E820133FC1BC0822DB7
:100BD00090E088169906B0F4B60180E290E00E9499
:100BE000170A2A94F4CFF50137FC859137FE8191DD
:100BF0005F01B60190E00E94170A21102A9421E0BB
:100C0000821A91088114910471F7E8C0843611F0BA
:100C1000893641F5F80137FE07C060817181828114
:100C200093810C5F1F4F08C060817181072E000CFB
:100C3000880B990B0E5F1F4FF32DFF763F2E97FF0A
:100C400009C090958095709561957F4F8F4F9F4F0C
:100C5000F0683F2E2AE030E0A3010E946C0A882E43
:100C6000861845C0853731F4232D2F7EB22E2AE019
:100C700030E025C0932D997FB92E8F36C1F018F43E
:100C8000883579F0B5C0803719F0883721F0B0C0C9
:100C9000E92FE061BE2EB4FE0DC0FB2DF460BF2E27
:100CA00009C034FE0AC0292F2660B22E06C028E0F3
:100CB00030E005C020E130E002C020E132E0F80180
:100CC000B7FE07C060817181828193810C5F1F4FE5
:100CD00006C06081718180E090E00E5F1F4FA3012C
:100CE0000E946C0A882E8618FB2DFF773F2E36FE59
:100CF0000DC0232D2E7FA22E891458F434FE0BC074
:100D000032FC09C0832D8E7EA82E05C0B82CA32CE2
:100D100003C0B82C01C0B92CA4FE0FC0FE01E80D21
:100D2000F11D8081803321F49A2D997EA92E09C06E
:100D3000A2FE06C0B394B39404C08A2D867809F04D
:100D4000B394A3FC11C0A0FE06C0B21488F4280C12
:100D5000922C9B180EC0B21460F4B60180E290E0B1
:100D60000E94170AB394F7CFB21418F42B1802C0DC
:100D7000982C212CA4FE10C0B60180E390E00E94C4
:100D8000170AA2FE17C0A1FC03C088E790E002C0CA
:100D900088E590E0B6010CC08A2D867859F0A1FE56
:100DA00002C08BE201C080E2A7FC8DE2B60190E0B8
:100DB0000E94170A891438F4B60180E390E00E947B
:100DC000170A9A94F7CF8A94F301E80DF11D8081F8
:100DD000B60190E00E94170A8110F5CF222009F495
:100DE00042CEB60180E290E00E94170A2A94F6CF24
:100DF000F6018681978102C08FEF9FEF2B96E2E18B
:100E00000C94E90A20FD09C0FC0123FD05C022FF66
:100E100002C07383628351834083089544FD17C0E9
:100E200046FD17C0AB01BC01DA01FB01AA0FBB1FD5
:100E3000EE1FFF1F1094D1F74A0F5B1F6E1F7F1F1D
:100E4000CB01BA01660F771F881F991F09C033E0D5
:100E500001C034E0660F771F881F991F3150D1F70A
:100E6000620F711D811D911D08950F931F93CF93E4
:100E7000DF938C01C8010E94D909EC0197FD08C0DD
:100E80000E94AF09892BB1F7B801CE010E94530A25
:100E9000CE01DF91CF911F910F9108958F929F9274
:100EA000AF92BF92EF92FF920F931F93CF93DF9376
:100EB0008C01D62F7A01B22E0E94D9099C013327CA
:100EC0002B32310531F02D32310561F48B2D8068E4
:100ED000B82ED15011F480E068C0C8010E94D90931
:100EE00097FDF9CFCB2DCD7F2B2D207309F58033C6
:100EF000F9F4AA24AA94AD0E09F443C0C8010E94D3
:100F0000D90997FD3EC09C012F7D33272835310537
:100F100049F4C264D250A9F1C8010E94D90997FFCF
:100F200007C02FC0B6FE02C0C26001C0C261DA2D88
:100F3000812C912C540120ED280F283080F0C4FF23
:100F400004C0B8010E94530A19C02A3040F0C6FFFD
:100F5000F8CF2F7D3FEE320F363098F727504C2FC9
:100F6000C501B4010E940E074B015C01C260D15063
:100F700059F0C8010E94D90997FFDDCFC1FD04C017
:100F8000AACF812C912C5401C7FF08C0B094A09423
:100F900090948094811C911CA11CB11C2C2FB50134
:100FA000A401C7010E94020781E0DF91CF911F9148
:100FB0000F91FF90EF90BF90AF909F908F9008950A
:100FC000A0E2B0E0E6EEF7E00C94D00A5C01962EC9
:100FD0007A01F9018E010F5F1F4F680180E2D8018D
:100FE0001D928A95E9F7D50113968C9080E090E0E8
:100FF000612C712C30E061E070E083FC259183FE70
:1010000021918F01522E211103C080E090E092C007
:101010002E3511F4009751F1432F50E0481759072E
:101020003CF42D3559F12D3219F4772009F103C024
:10103000772009F46AC0452D469546954695D60118
:10104000A40FB11D452D47708B0102C0000F111F69
:101050004A95E2F7A8015C91452B4C93651459F031
:10106000561410F45394E7CF5A94E5CF31E004C0FE
:101070007724739401C0712C0196BFCF772019F0AB
:101080008E8180628E83311103C08824839417C0BF
:10109000F6019E012F5D3F4F8081809581932E1731
:1010A0003F07D1F7F2CFE114F10429F0D7018C9377
:1010B000F70131967F019A94812C9920F9F0C501AE
:1010C0000E94D90997FD18C0FC01FF2723E0F59580
:1010D000E7952A95E1F7EC0DFD1D208130E0AC018C
:1010E0004770552702C0359527954A95E2F720FDB0
:1010F000DACFB5010E94530A811087CFE114F104C1
:1011000011F0D7011C92C80115C0422F4695469593
:101110004695D601A40FB11D422F47708B0102C026
:10112000000F111F4A95E2F7A8015C91452B4C93E3
:10113000622EA2CFA096EFE00C94EC0AA0E0B0E003
:10114000E4EAF8E00C94D00A6C01EB015A01FC01CE
:1011500017821682512CF601E380FE01E3FC859193
:10116000E3FE8191182FEF01882309F4EEC090E08F
:101170000E94AF09892B21F0C6010E943507EBCFF1
:10118000153241F4FE01E3FC1591E3FE1191EF01EC
:10119000153281F4C6010E94D90997FDD4C0412FB0
:1011A00050E09C01332724173507A9F2B6010E94AD
:1011B000530ACBC01A3239F4E3FC1591E3FE1191C6
:1011C000EF0101E001C000E0F12C20ED210F2A30F9
:1011D00080F402606F2D70E080E090E040E20E94B9
:1011E0000E07F62EFE01E3FC1591E3FE1191EF01CF
:1011F000ECCF01FF03C0F11003C0A7C0FF24FA9495
:10120000183619F01C3651F010C0FE01E3FC1591A0
:10121000E3FE1191EF01183641F408600460FE010D
:10122000E3FC1591E3FE1191EF01112309F48DC048
:10123000612F70E088E690E00E94B809892B09F4DC
:1012400084C000FD07C0F50180809180C501029631
:101250005C0102C0812C912C1E3651F4F6014681AE
:10126000578160E070E0202FC4010E94020773CF15
:101270001336A9F401FD02C0FF24F394C6010E94B5
:10128000D90997FD60C08114910429F0F40180838D
:10129000C40101964C01FA94F110F0CF50C01B35F7
:1012A00059F49E01A4016F2DC6010E94E007EC01D4
:1012B000892B09F044C03EC0C6010E94350797FD46
:1012C00042C01F3661F128F4143639F1193651F154
:1012D00028C0133771F0153701F123C08114910430
:1012E00029F0F4016082C40101964C01FA94FF20B8
:1012F00071F0C6010E94D9093C0197FD08C00E9407
:10130000AF09892B59F3B601C3010E94530A811416
:101310009104A9F0F401108212C0006203C00061C0
:1013200001C00064202FA4016F2DC6010E944E074A
:10133000811105C0F6018381807329F406C000FD88
:101340000ACF539408CF552019F0852D90E002C0A4
:101350008FEF9FEFCDB7DEB7EFE00C94EC0A911161
:101360000C94CA0A803219F089508550C8F7089544
:10137000FC010590061621F00020D9F7C001089560
:101380003197CF010895FC01059061507040011024
:10139000D8F7809590958E0F9F1F0895FC0161509E
:1013A000704001900110D8F7809590958E0F9F1F87
:1013B0000895CF93DF93EC012B8120FF33C026FFEC
:1013C0000AC02F7B2B838E819F8101969F838E8302
:1013D0008A8190E029C022FF0FC0E881F9818081D5
:1013E000082E000C990B009719F420622B831AC069
:1013F0003196F983E8830EC0EA85FB85099597FF4E
:1014000009C02B81019611F080E201C080E1822B9E
:101410008B8308C02E813F812F5F3F4F3F832E83F8
:10142000992702C08FEF9FEFDF91CF9108950F931F
:101430001F93CF93DF93FB01238121FD03C08FEF27
:101440009FEF2CC022FF16C0468157812481358131
:101450004217530744F4A081B1819D012F5F3F4F94
:10146000318320838C93268137812F5F3F4F3783D1
:10147000268314C08B01EC01FB010084F185E02D73
:101480000995892BE1F6D80116968D919C911797B5
:10149000019617969C938E931697CE01DF91CF916C
:1014A0001F910F910895FB01238120FF12C026FD9B
:1014B00010C08F3F3FEF930761F082832F7D206440
:1014C0002383268137812150310937832683992749
:1014D00008958FEF9FEF0895FA01AA27283051F160
:1014E000203181F1E8946F936E7F6E5F7F4F8F4F55
:1014F0009F4FAF4FB1E03ED0B4E03CD0670F781FB4
:10150000891F9A1FA11D680F791F8A1F911DA11D98
:101510006A0F711D811D911DA11D20D009F46894D1
:101520003F912AE0269F11243019305D3193DEF679
:10153000CF010895462F4770405D4193B3E00FD02F
:10154000C9F7F6CF462F4F70405D4A3318F0495D1A
:1015500031FD4052419302D0A9F7EACFB4E0A695FD
:101560009795879577956795BA95C9F7009761051F
:10157000710508959B01AC010A2E06945795479575
:1015800037952795BA95C9F7620F731F841F951F6A
:10159000A01D08959927882708952F923F924F9272
:1015A0005F926F927F928F929F92AF92BF92CF92F3
:1015B000DF92EF92FF920F931F93CF93DF93CDB7FC
:1015C000DEB7CA1BDB0B0FB6F894DEBF0FBECDBF74
:1015D00009942A88398848885F846E847D848C8445
:1015E0009B84AA84B984C884DF80EE80FD800C814E
:1015F0001B81AA81B981CE0FD11D0FB6F894DEBF31
:0C1600000FBECDBFED010895F894FFCFA0
:10160C0053656E642027532C632C762720746F202F
:10161C0073657420444143206F7574707574202871
:10162C00633A30206F7220312C20763A20666C6F32
:10163C006174290D0A0053656E64202747272074B6
:10164C006F2067657420766F6C74616765207265B6
:10165C006164696E672E0D0A005265636569766573
:10166C00643A20000D0A00532C25642C2566004496
:10167C004143204368616E6E656C20256420736560
:10168C007420746F20252E326620560D0A00457288
:10169C00726F723A20496E76616C6964206368617E
:1016AC006E6E656C2E205573652030206F72203164
:1016BC002E0D0A004572726F723A20496E76616C7B
:1016CC00696420636F6D6D616E6420666F726D610D
:1016DC00742E2055736520532C632C760D0A0056FE
:1016EC006F6C746167653A20252E326620560D0AA0
:1016FC0000556E6B6E6F776E20636F6D6D616E64EF
:10170C002E205573652027532C632C762720666F6B
:10171C007220444143206F722027472720666F7246
:0C172C0020766F6C746167652E0D0A005A
:00000001FF
