:020000020000FC
:0200000031C00D
:0200040028C111
:02000C0041C1F0
:10006400529820982198259A239A389A399A3A9A3C
:100074003B9A559AA2E0A0936900A1E0ADBBA09180
:100084006800A160A0936800A0916B00A360A09396
:100094006B00A0E3EA2EA3E2A4BDA9E0A5BDA7ECF2
:1000A400A7BD54E658BD789458D041E002E07BD017
:1000B40094D014E446D013E444D01AE342D007E8C1
:1000C40072D015E23ED08CD016E43BD011E639D084
:1000D4001EE637D01AE335D086D088D019E531D062
:1000E40015E62FD013E72DD07ED00A2EA0E04A13B8
:1000F40007C0A02D78D010E324D010E322D0F4CF91
:10010400A02DA02D58BDA52F56959AE0352F0AD0C5
:10011400132F1E0D16D0172F1E0D13D05A2FA02DDE
:100124000A2EE2CF70E0889429E0331F2A9509F45F
:100134000895771F791B18F4790F8894F6CF0894E3
:10014400F4CF2D9A69D02B9A012F029508B91ED0AD
:100154002B9A029508B91AD0089552D01BD056D0C4
:1001640019D05AD017D058D01AD050D028D04ED049
:1001740029D04CD02AD04AD02DD048D000E008B99C
:1001840005D00CE008B902D041D008952B9A31D0A3
:100194002B9808952D9803E008B9F8DF089502E03C
:1001A40008B9F4DF08952D9837D02B9A029508B931
:1001B400EDDF2B9A029508B9E9DF22D0089508E211
:1001C400F2DF08950DE0EFDF089501E0ECDF02E0D7
:1001D400EADF089506E0E7DF089500E8E4DF089524
:1001E40000ECE1DF089505E8DEDF089504ECDBDFD1
:1001F40008950000000000000000000000000895C1
:10020400B8ECB03009D0BA95E1F70895BAE0B0304F
:1002140003D0BA95E1F7089583E08093B10086E0B6
:100224008093B200F7B3F160F7BBF7B3F0FFFDCFF3
:100234000895D9DF58BDA52F56959AE0352F72DF62
:10024400D2DF132F1E0D7DDF172F1E0D7ADF5A2FDD
:100254001895413051F041E058BDC8DF19E571DF10
:1002640015E66FDF13E76DDF0BC040E0B42FB8BDB8
:10027400BDDF1EE466DF1FE664DF10E262DF00C05C
:100284004A99FECF00C0AFDFC1DF18950A2EA1E066
:100294004A131DC0A02DD3B1D370DE17C1F0E0FD09
:1002A400D0FF03C0D1FD03C00AC0ED2F10C0CF930F
:1002B400C7EC5C13539550932800CF9108C0CF939B
:1002C400C0E05C135A9550932800CF9100C09EDF84
:0402D400A02D1895AC
:00000001FF
